:020000040000FA
:100000000A128A110E28FF34FE00030EF0000A08BF
:10001000F1007F08F2000A128A153D280A128A119F
:1000200011288313F030FD001130FE008B30FF00EB
:10003000D73084000A168A15C7270A128A110A16B1
:100040008A117D210A128A11EA000A128A110320FC
:100050000A128A11FA00A0308400D7300A168A15D5
:100060004E270A128A114D3084006A300A168A150A
:100070004E270A128A11F90183010A128A114028B7
:10008000831603179901990A831603136D088316C3
:1000900003179200831603136E0883160317930049
:1000A000831603136F0883160317940095010A162D
:1000B0008A115C240A128A1183120313A40192305C
:1000C0000A168A1182260A128A116330F6009130CC
:1000D000F70000300A168A11F5220A128A110A3036
:1000E00083120313A0000030A1000A168A159E2770
:1000F0000A128A11740883120313A3007308A20062
:100100000A168A119F240A128A11831203132008E7
:1001100083160317960064301602031C902891285A
:1001200093286330960000300A168A1175220A124D
:100130008A118316031798003F3018060319A12867
:10014000A228BD281F3018060319A728A828BD28F3
:1001500004308312031368060319AF28B028CA2895
:100160000130DD070318DE0A0030DE0783160317AF
:10017000180883120313E900CA283F301806031D2C
:10018000C228C328CA2883120313E8010030DD0007
:100190000030DE003F30831603171806031DD128F8
:1001A000D228D5291903031DD628D728D5293E30B2
:1001B000831203136906031DDE28DF281229683025
:1001C000F3009130F40092300A168A1186230A1245
:1001D0008A11730874040319EE28EF28122992304B
:1001E000F3000130F4006830F5009130F6000A1693
:1001F0008A114B220A128A118316031716088312DA
:100200000313A40092300A168A1182260A128A1158
:1002100083120313DD01DE010310003003180130E7
:10022000E900D5293D30831203136906031D1929FE
:100230001A29552906308316031715020318212998
:10024000222955299230F3000130F4001508831259
:100250000313C6004607D73E840083130008F50049
:10026000840A00088403F6000A168A114B220A1237
:100270008A11013083120313C60046088316031740
:100280009507160883120313A40092300A168A11E8
:1002900082260A128A1183120313DD01DE01031084
:1002A000003003180130E900D5293B3083120313D5
:1002B0006906031D5C295D29932983160317150818
:1002C0000319632964299329013095029230F300C0
:1002D0000130F400150883120313C6004607D73E09
:1002E000840083130008F500840A00088403F600E4
:1002F0000A168A114B220A128A118316031716084E
:1003000083120313A40092300A168A1182260A125D
:100310008A1183120313DD01DE010310003003187C
:100320000130E900D5293730831203136906031918
:100330009A299B29A1292F306906031DA029A129EB
:10034000D5290A168A158D270A128A11CC308312F4
:100350000313A0009030A1008030A2000A168A1179
:10036000B8230A128A11C53083120313B600203055
:100370000A168A15B0270A128A11F3010F300A16DD
:100380008A11C2210A128A11A53083120313C600F2
:10039000C60BC829CB290230831603179900970191
:1003A000970A8312031312150829831203135E0898
:1003B000803AFF0080307F02031DE0290E305D028D
:1003C000031CE329E429652B3730831203136906E4
:1003D000031DEB29EC291E2B043083160317190685
:1003E000031DF329F429372A043083120313E8008C
:1003F0001A2A083083160317990008309700142B27
:10040000103083160317990004309700142B203006
:10041000831603179900142B403083160317990095
:1004200010309700142B8030831603179900970122
:10043000970A142B83160317100883120313C600A0
:10044000C7014708003A0319262A142B4608003A28
:100450000319F929013A0319002A033A0319072A53
:10046000013A03190C2A073A0319132A142B0830EE
:10047000190603193C2A3D2A432A80301906031D18
:10048000422A432A562A0430990005309700F30186
:100490000C300A168A11C2210A128A11A530831261
:1004A0000313C600C60B522A552A142B40301906D6
:1004B000031D5B2A5C2A142B043099000530970039
:1004C0000A30F3000030F400831203136708C600FB
:1004D000C7014608F5004708F6000A168A112726C4
:1004E0000A128A11730883120313C8007408C90022
:1004F0000A30F3000030F4006708CA00CB014A0854
:10050000F5004B08F6000A128A118C270A128A118C
:10051000730883120313CC0003300310CC0DFF3E8D
:10052000031D8D2A03104C0D4804F80000300A16F4
:100530008A1103220A128A110A30F3000030F400F3
:10054000831203136608C600C7014608F500470872
:10055000F6000A168A1127260A128A1173088312D6
:100560000313C8007408C9000A30F3000030F40017
:100570006608CA00CB014A08F5004B08F6000A12CB
:100580008A118C270A128A11730883120313CC0074
:1005900003300310CC0DFF3E031DC92A03104C0D80
:1005A0004804F80001300A168A1103220A128A113F
:1005B0000A30F3000030F400831203136508C6000C
:1005C000C7014608F5004708F6000A168A112726D3
:1005D0000A128A11730883120313C8007408C90031
:1005E0000A30F3000030F4006508CA00CB014A0865
:1005F000F5004B08F6000A128A118C270A128A119C
:10060000730883120313CC0003300310CC0DFF3E9C
:10061000031D052B03104C0D4804F80002300A1688
:100620008A1103220A128A1183120313DD01DE01EB
:100630000310003003180130E900652B2F306906E4
:10064000031D232B242B652B043083160317190657
:1006500003192B2B2C2B3E2B083019060319312B99
:10066000322B3E2B403019060319372B382B3E2BEB
:1006700080301906031D3D2B3E2B652B0A168A156B
:100680008D270A128A11043083120313E80083169F
:1006900003179901990A83120313DD01DE01031088
:1006A000003003180130E900F3010C300A168A11FA
:1006B000C2210A128A11A53083120313C600C60B89
:1006C0005F2B622B83120313121104308312031366
:1006D0006806031D6C2B6D2B812CDD01DE010310E0
:1006E000003003180130E900812C83160317160827
:1006F00083120313B70092300A168A1179250A1261
:100700008A11A72C0A168A158D270A128A118316B8
:1007100003179901990AF3010C300A168A11C221B4
:100720000A128A11A53083120313C600C60B962B3A
:10073000992B831203131211A72C0430831603176D
:10074000990005309700F3010C300A168A11C22176
:100750000A128A11A53083120313C600C60BAE2BF2
:10076000B12B6F2883160317180883120313B700E1
:100770008316031717080A128A11AE240A128A1167
:1007800083120313C600C7014708003A0319C92B97
:10079000A72C4608013A03199D2B023A0319822B14
:1007A000A72C83160317180883120313B7008316A8
:1007B000031717080A128A11B3260A128A11831620
:1007C00003179000831203135F086004031DE92BD5
:1007D000EA2BA72C0A168A158D270A128A1183166E
:1007E00003179901990A992B831603171808831286
:1007F0000313B8008316031717080A128A15462335
:100800000A128A1183160317910022301106031D64
:100810000A2C0B2C102C04309900053097006F28FF
:10082000831203135F086004031D172C182CA72CD8
:10083000EA2B8316031717080A168A11EB230A12EC
:100840008A110430831603179900053097006F282A
:100850000A168A119C270A128A11212C8316031763
:10086000180883120313B7008316031717080A1218
:100870008A150A260A128A11831203135F0860047C
:10088000031D432C442CA72CEA2B831603171808AE
:1008900083120313B7008316031717080A128A1569
:1008A0001C240A128A1183160317910011301106B5
:1008B000031D5B2C5C2C682C0430990005309700DC
:1008C000F3010C300A168A11C2210A128A11AA2BCE
:1008D000831203135F086004031D6F2C702CA72C78
:1008E0000A168A158D270A128A1183160317990191
:1008F000990AF3010C300A168A11C2210A128A11D0
:10090000922B83160317190883120313C600C7011D
:100910004708003A03198D2CA72C4608013A031901
:10092000752B033A0319B22B063A0319D12B0C3A53
:100930000319F42B183A0319192C303A0319282CEF
:10094000603A03192E2CC03A0319452CA72C8316A4
:10095000031797016F280A128A110E2883120313B6
:10096000C3004303031DB52CB62CC52CE40183162C
:100970000313D301D401D501D6010330831203132D
:10098000E3000530DF000030E0005F086004031D75
:10099000CA2CCB2CCD2C0330B22E3F303706031D92
:1009A000D22CD32C1C2D37306906031DD82CD92C02
:1009B000002D043064020318DE2CDF2C002D6408A7
:1009C000D33E84003130831380006408C63EB600F5
:1009D0002A300A168A15B0270A128A1101308312AA
:1009E0000313B8003808E4070530DF000030E000EA
:1009F000DD01DE010310003003180130E9001C2D79
:100A00002F306906031D052D062D1C2D04306402B0
:100A100003180B2D0C2D1C2D6408D33E84003030A0
:100A2000831380006408C63EB6002A300A168A1571
:100A3000B0270A128A11EE2C04306406031D212D02
:100A4000222DB22EC401C5018312031344083B3E7C
:100A5000840044080A168A11CA220A128A118313D2
:100A60008000013083120313C4070318C50A003045
:100A7000C5074508803AFF0080307F02031D422DE4
:100A800004304402031C452D462D242DD330F300A1
:100A90000430F4000030F5003B300A168A111E24A1
:100AA0000A128A1173087404031D572D582D5A2DEC
:100AB0000130B22E0A168A158D270A128A110130CA
:100AC00083120313E3026308031D672D682D472E6D
:100AD0000A168A158D270A128A11ED308312031324
:100AE000A0009030A1008030A2000A168A11B8231D
:100AF0000A128A110C3083120313A0009130A10056
:100B0000C030A2000A168A11B8230A128A11F30112
:100B10000C300A168A11C2210A128A11A5308312DA
:100B20000313B800B80B922D952D003083120313D8
:100B3000D0000030CF000330CE008430CD003A2EFC
:100B4000CD30B6000030AB000030AA000030A90064
:100B50006430A8005008AF004F08AE004E08AD004A
:100B60004D08AC000A128A15A9220A128A118312B2
:100B700003132808303E0A168A15B0270A128A1174
:100B8000CE3083120313B6000030AB000030AA0051
:100B90000030A9000A30A8005008A7004F08A6009E
:100BA0004E08A5004D08A4000030A3000030A200AC
:100BB0000030A1006430A0000A128A1589210A12AF
:100BC0008A11831203132308AF002208AE00210804
:100BD000AD002008AC000A128A15A9220A128A1157
:100BE000831203132808303E0A168A15B0270A120A
:100BF0008A11831203135008A7004F08A6004E085D
:100C0000A5004D08A4000030A3000030A200003071
:100C1000A1006430A0000A128A1589210A128A11E3
:100C2000831203132308C2002208C1002108C00058
:100C30002008BF00CF30B6000030A3000030A20073
:100C40000030A1000A30A0004208A7004108A60019
:100C50004008A5003F08A4000A128A1589210A123B
:100C60008A11831203132008303E0A168A15B02712
:100C70000A128A118312031350084F044E044D04C4
:100C8000031D432E442EA02D0330E3007F2E0A16B1
:100C90008A158D270A128A11DD3083120313A000F2
:100CA0009030A1008030A2000A168A11B8230A12DF
:100CB0008A11C03083120313B6006308303E0A164F
:100CC0008A15B0270A128A11FD3083120313A0007F
:100CD0009030A100C230A2000A168A11B8230A126D
:100CE0008A114D3083120313BA001930B9004F3006
:100CF000B800B80B792EB90B792EBA0B792E0530C6
:100D000083120313DF000030E0000A168A158D27D6
:100D10000A128A11CC3083120313A0009030A10074
:100D20008030A2000A168A11B8230A128A11C5302F
:100D300083120313B60020300A168A15B0270A1250
:100D40008A11F3010F300A168A11C2210A128A1180
:100D5000A53083120313B800B80BAC2EAF2E83124C
:100D60000313E401080083120313BA0005303A06A6
:100D7000031DBB2EBC2ECF2E0A168A158D270A12F4
:100D80008A11053083120313DF000030E000E20116
:100D9000DD01DE010310003003180130E9003F30AF
:100DA0003706031DD42ED52E152F5E08803AFF007E
:100DB00080307F02031DDE2E82305D020318E12E9B
:100DC000E22E152F2F30831203136906031DE92E1F
:100DD000EA2E072F043062020318EF2EF02EFD2EAC
:100DE0000130B8003808E2070530DF000030E000CD
:100DF0000A168A158D270A128A1183120313DD0140
:100E0000DE010310003003180130E900152F3730E0
:100E10006906031D0C2F0D2F152F62080319112FC2
:100E2000122FFD2E0130E202F42E04308312031340
:100E3000620203181C2F1D2F502F8030B6002A305D
:100E40000A168A15B0270A128A1183120313620840
:100E5000B8003807E33E840083130008A000840A2A
:100E600000088403A1008230A2000A168A11B82368
:100E70000A128A11831203136208B8003807E53E8C
:100E8000840083130008A000840A00088403A100E2
:100E9000C230A2000A168A11B8230A128A11882FBA
:100EA00004306206031D552F562F882FC030B60020
:100EB0002A300A168A15B0270A128A1183120313E0
:100EC0006208B8003807E13E840083130008A000E0
:100ED000840A00088403A1008230A2000A168A1145
:100EE000B8230A128A11831203136208B800380764
:100EF000E33E840083130008A000840A00088403F2
:100F0000A100C230A2000A168A11B8230A128A115F
:100F1000831203136208080083120313A101F41F54
:100F2000922F932F9A2FF309F409F30A0319F40A65
:100F3000A101A10AF61F9D2F9E2FA72FF509F609E3
:100F4000F50A0319F60A0130F7007708A106A20195
:100F5000A301730874040319AE2FAF2FE62FA0016D
:100F6000A00ABD2F01300310F30DF40DFF3E031D49
:100F7000B32F0130F7007708A007F41FC02FC12F4F
:100F8000B22F01300310A20DA30DFF3E031DC22F8F
:100F900074087602031DCE2F73087502031CD12F2F
:100FA000D22FD92F7308F5027408031CF603F6023A
:100FB000221401300310F40CF30CFF3E031DDA2F52
:100FC0000130A002031DE52FE62FC12F21080319D0
:100FD000EA2FEB2FF02FA209A309A20A0319A30AF3
:100FE0002308F4002208F300080083160313880185
:100FF000091189100A168A11D0250A128A110800CF
:101000000A168A1580270A128A15831603131115EA
:1010100008008312031394152808AC002908AD00BA
:101020002A08AE002B08AF0002300310AC0DAD0D46
:10103000AE0DAF0DFF3E031D15282F08A3002E088F
:10104000A2002D08A1002C08A0000130A70031301B
:10105000A6002D30A5000030A4000A128A15A42095
:101060000A128A15831203132008FF3E8316031306
:1010700093008312031394160800831203138C1C2D
:10108000422843289B28013083160313B007031816
:10109000B10A0030B107E2303006043003193106DE
:1010A000031D532854289828B001B101831203135B
:1010B000D01B6A285008031D6B284F08031D6B289E
:1010C0004E08031D6B2801304D02031D6728031CC9
:1010D0006A286B287928FF3083120313CD07FF306D
:1010E000031CCE07FF30031CCF07FF30031CD007C3
:1010F00098288312031350084F044E044D04031D17
:101100008228832898286008803AFF0080307F0278
:10111000031D8C2801305F02031C8F28902898281B
:10112000FF3083120313DF070318E00AFF30E007E4
:10113000831203138C107208FF0071088A00700E6E
:101140008300FE0E7E0E09000030F7000030F6002E
:101150000030F5000030F40083120313230822044A
:10116000210420040319B528B6280329F801F80A38
:10117000C6280130F3000310A00DA10DA20DA30D90
:10118000F30BBB280130F3007308F807A31FC9282D
:10119000CA28B9280130F3000310F40DF50DF60D3F
:1011A000F70DF30BCC2823082702031DE1282208A2
:1011B0002602031DE12821082502031DE12820083D
:1011C0002402031CE428E528F4282008A4022108AE
:1011D000031C210FA5022208031C220FA6022308CC
:1011E000031C230FA702741401300310A30CA20CDC
:1011F000A10CA00CFF3E031DF5280130F802031DD1
:1012000002290329CA287708A3007608A2007508D6
:10121000A1007408A0000800F40074082F3E0A160C
:101220008A1575270A128A1520300A168A1575271D
:101230000A128A158316031320080A168A157527C1
:101240000A128A158316031321080A168A157527B0
:101250000A128A153A300A168A1575270A128A1553
:101260008316031322080A168A1575270A128A158F
:101270008316031323080A168A1575270A128A157E
:101280003A300A168A1575270A128A15831603132F
:1012900024080A168A1575270A128A15831603135D
:1012A00025080A168A1575270A128A1520300A168B
:1012B0008A1575270A128A158316031327080A163A
:1012C0008A1575270A128A158316031328080A1629
:1012D0008A1575270A128A1520300A168A1575276D
:1012E0000A128A15831603132A080A168A15752707
:1012F0000A128A15831603132B080A168A157527F6
:101300000A128A150A300A168A1575270A128A15D2
:101310000800F50183120313A71F8F2990299D2927
:10132000A409A509A609A709A40A0319A50A03196E
:10133000A60A0319A70AF501F50AA31FA029A129E6
:10134000AC29A009A109A209A309A00A0319A10AAD
:101350000319A20A0319A30A230822042104200462
:101360000319B329B429F729F401F40AC429013077
:10137000F3000310A00DA10DA20DA30DF30BB929CD
:101380000130F3007308F407A31FC729C829B72940
:1013900023082702031DD62922082602031DD62969
:1013A00021082502031DD62920082402031CD9295F
:1013B000DA29E8292008A4022108031C210FA5022C
:1013C0002208031C220FA6022308031C230FA702D6
:1013D00001300310A30CA20CA10CA00CFF3E031DB6
:1013E000E9290130F402031DF629F729C8297508F7
:1013F0000319FB29FC29072AA409A509A609A7099D
:10140000A40A0319A50A0319A60A0319A70A27089B
:10141000A3002608A2002508A1002408A0000800B7
:1014200083120313B700C030B60037082F3E0A16E8
:101430008A15B0270A128A15C23083120313B60028
:101440008316031320080A168A15B0270A128A1574
:10145000C33083120313B6008316031321080A1640
:101460008A15B0270A128A15C43083120313B600F6
:101470003A300A168A15B0270A128A15C530831227
:101480000313B6008316031322080A168A15B02721
:101490000A128A15C63083120313B600831603138B
:1014A00023080A168A15B0270A128A15C730831234
:1014B0000313B6003A300A168A15B0270A128A15A5
:1014C000C83083120313B6008316031324080A16C8
:1014D0008A15B0270A128A15C93083120313B60081
:1014E0008316031325080A168A15B0270A128A15CF
:1014F000CB3083120313B6008316031327080A1692
:101500008A15B0270A128A15CC3083120313B6004D
:101510008316031328080A168A15B0270A128A159B
:10152000CE3083120313B600831603132A080A165B
:101530008A15B0270A128A15CF3083120313B6001A
:10154000831603132B080A168A15B0270A128A1568
:10155000080083120313B101AB1FAF2AB02ABD2AC2
:10156000A809A909AA09AB09A80A0319A90A031914
:10157000AA0A0319AB0AB101B10AAF1FC02AC12AD6
:10158000D02AAC09AD09AE09AF09AC0A0319AD0AFE
:101590000319AE0A0319AF0A0130F6007608B10646
:1015A0000030B5000030B4000030B3000030B200AD
:1015B0002B082A04290428040319DF2AE02A2D2BEA
:1015C000B001B00AF02A0130F6000310A80DA90DF1
:1015D000AA0DAB0DF60BE52A0130F6007608B00730
:1015E000AB1FF32AF42AE32A0130F6000310B20DF0
:1015F000B30DB40DB50DF60BF62A2B082F02031D03
:101600000B2B2A082E02031D0B2B29082D02031D6C
:101610000B2B28082C02031C0E2B0F2B1E2B28082B
:10162000AC022908031C290FAD022A08031C2A0F4B
:10163000AE022B08031C2B0FAF0232140130031033
:10164000AB0CAA0CA90CA80CFF3E031D1F2B0130EC
:10165000B002031D2C2B2D2BF42A31080319312B3A
:10166000322B3D2BB209B309B409B509B20A0319EB
:10167000B30A0319B40A0319B50A3508AB003408D4
:10168000AA003308A9003208A80008008312031337
:10169000BC0008303C06031D4E2B4F2B7A2B0A163C
:1016A0008A158D270A128A15053083120313DF006D
:1016B0000030E000790803195E2B5F2B7A2BAA30EB
:1016C000A0009030A1008030A2000A168A11B82331
:1016D0000A128A1583120313E101E10A01300A1686
:1016E0008A11DD260A128A1501300A128A15102283
:1016F0000A128A15790803197E2B7F2BE22B3F30C3
:10170000831203133806031D862B872B0C2C5E08CF
:10171000803AFF0080307F02031D902B0D305D0268
:101720000318932B942B0C2C373083120313690668
:10173000031D9B2B9C2BC02B0130E102031DA12B11
:10174000A22BA42B7908E10061080A168A11DD2674
:101750000A128A158312031361080A128A151022CD
:101760000A128A1583120313DD01DE010310003013
:1017700003180130E9000530DF000030E0000C2CD8
:101780002F306906031DC52BC62BE12B0130B90094
:101790003908E107610879020318CF2BD02BD22B2F
:1017A000E101E10A61080A168A11DD260A128A158A
:1017B0008312031361080A128A1510220A128A156D
:1017C000B22B0C2C003083120313A0009030A10028
:1017D0008030A2000A168A11B8230A128A154430F2
:1017E00083120313A0009030A100C030A2000A169B
:1017F0008A11B8230A128A154D3083120313BB00D5
:101800001930BA004F30B900B90B042CBA0B042CB4
:10181000BB0B042C22301B2C033083120313BB00A0
:101820000E30BA00F530B900B90B142CBA0B142CD9
:10183000BB0B142C1130080083120313BB003B03B5
:10184000031D232C242C622C0A168A158D270A12BC
:101850008A15053083120313DF000030E000CC301E
:10186000A0009030A1008030A2000A168A11B8238F
:101870000A128A15C53083120313B60020300A16E7
:101880008A15B0270A128A15F3010F300A168A1139
:10189000C2210A128A15A53083120313B800B80BAF
:1018A0004F2C522C83120313D101D201D301D40146
:1018B00083160313CF01D001D101D201CB01CC019A
:1018C000CD01CE013F3083123706031D682C692CF1
:1018D000082D5E08803AFF0080307F02031D722CC5
:1018E0000D305D020318752C762C082D37308312CD
:1018F00003136906031D7D2C7E2CD12C5408803ADD
:10190000FF0080307F02031D872C04305302031830
:101910008A2C8B2CAC2C831203135308CF3E8400EB
:101920003130831380005308C63EB6002A300A16B1
:101930008A15B0270A128A15013083120313D307C0
:101940000318D40A0030D407DD01DE010310003093
:1019500003180130E900C52C831203135108CB3E54
:1019600084003130831380005108C63EB6002A300F
:101970000A168A15B0270A128A150130831203133A
:10198000D1070318D20A0030D2070530DF0000303B
:10199000E000DD01DE010310003003180130E90032
:1019A000082D2F306906031DD62CD72C082D54087E
:1019B000803AFF0080307F02031DE02C0430530288
:1019C0000318E32CE42CF62C831203135308CF3EA8
:1019D00084003030831380005308C63EB6002A309E
:1019E0000A168A15B0270A128A159C2C8312031333
:1019F0005108CB3E84003030831380005108C63E2E
:101A0000B6002A300A168A15B0270A128A15BD2C8C
:101A100004308312031353065404031D102D112D9B
:101A2000342D0130D3070318D40A0030D4070A1626
:101A30008A158D270A128A153F3083120313A000DE
:101A40009130A1008430A2000A168A11B8230A122C
:101A50008A15C53083120313B60020300A168A1582
:101A6000B0270A128A15FB2D043051065204031DBB
:101A70003A2D3B2DFB2DCB30F3000430F400003029
:101A8000F500CF300A168A111E240A128A1573082F
:101A90007404031D4C2D4D2DA32D0A168A158D2778
:101AA0000A128A1583120313BC01BD0183120313AA
:101AB0003C08CF3E840083130008F4003C080A165B
:101AC0008A11A4210A128A15013083120313BC075C
:101AD0000318BD0A0030BD073D08803AFF00803082
:101AE0007F02031D752D04303C02031C782D792DD7
:101AF000562D663083120313A0009030A100803071
:101B0000A2000A168A11B8230A128A1522308312FB
:101B10000313A0009030A100C030A2000A168A1161
:101B2000B8230A128A154D3083120313BA001930F4
:101B3000B9004F30B800B80B9B2DB90B9B2DBA0BD9
:101B40009B2D1130092E83120313D101D201D30131
:101B5000D4015530A0009030A1008030A2000A16B8
:101B60008A11B8230A128A15883083120313A00041
:101B70009030A100C030A2000A168A11B8230A12C0
:101B80008A154D3083120313BA001930B9004F3053
:101B9000B800B80BC92DB90BC92DBA0BC92D0A163F
:101BA0008A158D270A128A15CC3083120313A000E0
:101BB0009030A1008030A2000A168A11B8230A12C0
:101BC0008A15C53083120313B60020300A168A1511
:101BD000B0270A128A1583160313CF01D001D10151
:101BE000D201CB01CC01CD01CE010530831203130C
:101BF000DF000030E000033083120313BA000E3020
:101C0000B900F530B800B80B032EB90B032EBA0B90
:101C1000032E080083120313BA0010303A06031D86
:101C2000122E132E7A2E0A168A158D270A128A155D
:101C3000053083120313DF000030E000D501D60128
:101C4000D701D8014830A0009130A1008430A20013
:101C50000A168A11B8230A128A150A168A112C2527
:101C60000A128A15BD30F3000030F400C430F500CC
:101C70000030F6000A168A114B220A128A150A3021
:101C8000F3008316031341080A168A15D6270A1291
:101C90008A15831603134207F03E83120313E700ED
:101CA0000A30F300831603133F080A168A15D62755
:101CB0000A128A15831603134007F03E831203139A
:101CC000E6000A30F300831603133D080A168A154E
:101CD000D6270A128A15831603133E07F03E831295
:101CE0000313E5000230DB000030DC000A30D900CD
:101CF0000030DA003F303706031D7F2E802E072F7D
:101D00005E08803AFF0080307F02031D892E0D306F
:101D10005D0203188C2E8D2E072F3730831203138C
:101D20006906031D942E952ED12E02305B065C04AD
:101D3000031D9B2E9C2EA82E0130B8003808E70703
:101D40003C306702031CA52EA62EC52EE701C52E2A
:101D50005B035C04031DAD2EAE2EBA2E0130B8001D
:101D60003808E6073C306602031CB72EB82EC52E95
:101D7000E601C52E0130B8003808E50718306502C5
:101D8000031CC32EC42EC52EE5010530DF00003034
:101D9000E000DD01DE010310003003180130E9002E
:101DA000072F2F306906031DD62ED72E072FFF30A1
:101DB000DB070318DC0AFF30DC07DC1FE02EE12E16
:101DC000E52E0230DB000030DC0002305B065C04F4
:101DD000031DEB2EEC2EF12E0A30D9000030DA0074
:101DE000C52E5B035C04031DF62EF72EFC2E073078
:101DF000D9000030DA00C52E5B085C04031D012FFA
:101E0000022FC52E0430D9000030DA00C52E013073
:101E100083120313D7070318D80A0030D8075808CD
:101E2000803AFF0080307F02031D182F0B305702CD
:101E3000031C1B2F1C2F2E2F83120313550856042F
:101E40000319232F252F0130262F0030B800B901A8
:101E50003808D5003908D600D701D80183120313FA
:101E600055085604031D352F362FEB2FC430B6000E
:101E70000A30F3000030F4006508B800B9013808F2
:101E8000F5003908F6000A128A118C270A128A1501
:101E90007308303E0A168A15B0270A128A15C53013
:101EA00083120313B6000A30F3000030F400650813
:101EB000B800B9013808F5003908F6000A168A1189
:101EC00027260A128A157308303E0A168A15B0278B
:101ED0000A128A15C63083120313B6003A300A1666
:101EE0008A15B0270A128A15C73083120313B60069
:101EF0000A30F3000030F4006608B800B901380871
:101F0000F5003908F6000A128A118C270A128A1580
:101F10007308303E0A168A15B0270A128A15C8308F
:101F200083120313B6000A30F3000030F400660891
:101F3000B800B9013808F5003908F6000A168A1108
:101F400027260A128A157308303E0A168A15B0270A
:101F50000A128A15C93083120313B6003A300A16E2
:101F60008A15B0270A128A15CA3083120313B600E5
:101F70000A30F3000030F4006708B800B9013808EF
:101F8000F5003908F6000A128A118C270A128A1500
:101F90007308303E0A168A15B0270A128A15CB300C
:101FA00083120313B6000A30F3000030F400670810
:101FB000B800B9013808F5003908F6000A168A1188
:101FC00027260A128A157308303E0A168A15B0278A
:101FD0000A128A15FF2F5908C03EB600FF300A16B4
:101FE0008A15B0270A128A15831203135908C13EB5
:101FF000B600FF300A168A15B0270A128A150800A3
:10200000203420342034203420344E344F342034D3
:102010004C344F344734533420342034203420346B
:1020200000342034203420342034203449344E34D9
:102030002034553441345234543420342034203444
:102040002034003420342034533455344334433462
:10205000453453345334463455344C344C34593469
:1020600020342034003420344C344F34473453343B
:10207000203444344934533450344C34413459348A
:102080004534443420340034203420344134523434
:102090004534203441345634413449344C3441348D
:1020A00042344C34453420340034503441345334B9
:1020B000533457344F345234443420344434493444
:1020C00044344E34273454342034003450344134B2
:1020D0005334533457344F3452344434203443341B
:1020E000483441344E3447344534443400344C345D
:1020F0004F3447345334203441345234453420343F
:1021000043344C344534413452344534443400343F
:102110004D3441345434433448342C342034543412
:1021200052345934203441344734413449344E34E4
:10213000003420342034543449344D344534203470
:102140002034203420344534563420342034533461
:1021500050340034203420342034543449344D3445
:10216000453420342034203420344534563420344F
:1021700053345034003455344134523454342034C0
:102180005434653473347434203443346F346434D9
:1021900065340A340D340034203445344E3454341C
:1021A000453452342034503441345334533457344A
:1021B0004F345234443420340034203457345234B1
:1021C0004F344E3447342034503441345334533434
:1021D00057344F3452344434003459346F347534E6
:1021E0002034613472346534203462346C346F349A
:1021F00063346B346534643400346134743474345F
:1022000065346D34703474342034723465346D3414
:10221000613469346E34003466346F34723420347F
:1022200039343034303420347334653463342E34EC
:102230002E3400344334683461346E34673465348A
:10224000203470346134733473347734643400343C
:1022500044346F3477346E346C346F3461346434A6
:1022600020346C346F346734003443346C34653458
:102270006134723420346C346F3467340034523437
:1022800045342D3445344E345434453452340034BE
:102290004834483420344D344D342034533453348E
:1022A00000345334653474342034743469346D34F8
:1022B00065340034563469346534773420346C34F2
:1022C0006F346734003431343034313430340034D6
:1022D000433420340034473431340034473432340A
:1022E0000034473433340034473434340034473412
:1022F0004E34003447345234003401348312031313
:1023000012149214FA308316031392008C14831261
:10231000031312110800773491347A3491346B34FA
:1023200091346E34913471349134743491345A341C
:1023300091343534913428349134513491341A34F1
:1023400091344F344E340034F5000A168A1556275E
:102350000A168A11A0300A168A155F270A168A11F2
:1023600075080A168A155F270A168A1174080A1654
:102370008A155F270A168A110A128A1500200A1682
:102380008A110800F6007318C629CA29831203139C
:102390000915CD29831203130911760888008914C1
:1023A000A630F400F40BD229000083120313891025
:1023B0001B30F5009E30F400F40BDC29F50BDC2912
:1023C00000000800F3000A168A1580270A168A11F1
:1023D0008316031391150A168A1580270A168A1187
:1023E000831203131308F4007303031DF829F9295A
:1023F000FD29831603139116002A831603139112E5
:1024000011167408080083120313A4000A168A1513
:1024100056270A168A11D0300A168A155F270A161F
:102420008A118312031324080A168A155F270A16D5
:102430008A1178080A168A155F270A168A110A1265
:102440008A1500200A168A1108003A2A7508FF002A
:10245000740884000A168A1500200A168A110A16C2
:102460008A1575270A168A110130F4070318F50A30
:102470000030F507750883120313FF007408840009
:102480000A168A1500200A168A11003A031D492AE5
:102490004A2A262A0800730883120313A00074082E
:1024A000A1005E2A0130A0070318A10A0030A1078D
:1024B0000130F5070318F60A0030F6077608FF002A
:1024C000750884000A168A1500200A168A11F7007A
:1024D000200884008317211C8313770880000008DC
:1024E000031D732A742A522A0800F4007408031D7D
:1024F0007A2A7B2A802A8312031306083F399E2AF0
:102500003F30831203130605F3003F3073060319AF
:102510008A2A8B2A922A6A0803198F2A902A922AD9
:10252000EA017B2A3F300605F3003F307306031DA6
:102530009A2A9B2A9D2AEA01EA0A3F300800F50000
:102540000A168A1556270A168A11D0300A168A15D5
:102550005F270A168A1175080A168A155F270A1658
:102560008A110A168A156A270A168A11D1300A16A4
:102570008A155F270A168A1100300A168A11E2218D
:102580000A168A11F6000A128A1500200A168A1104
:1025900076080800F5000A168A1556270A168A11C9
:1025A000A0300A168A155F270A168A1175080A16BE
:1025B0008A155F270A168A110A168A156A270A16CB
:1025C0008A11A1300A168A155F270A168A1100306F
:1025D0000A168A11E2210A168A11F6000A128A15D1
:1025E00000200A168A117608080083120313A0003F
:1025F000152B7708FF00760884000A168A1500203C
:102600000A168A11F40020080A168A11A4210A1653
:102610008A110130F800780883120313A0070130F3
:10262000F6070318F70A0030F7077708FF00760867
:1026300084000A168A1500200A168A11003A031D22
:10264000222B232BF92A0800013083120313A10047
:102650002108FA070A307A06031D2F2B302B312B65
:10266000FA010A30F3007A080A168A15D6270A16E4
:102670008A11053E83120313A200B230F600003027
:10268000F70022080A168A11F5220A168A110A3062
:10269000790203184C2B4D2B532B0130831203135B
:1026A000A1002108F90708008312031398171816D0
:1026B0002808AC002908AD002A08AE002B08AF009E
:1026C00004300310AC0DAD0DAE0DAF0DFF3E031D7C
:1026D000612B2F08A3002E08A2002D08A1002C08B2
:1026E000A0000130A7003130A6002D30A500003039
:1026F000A4000A128A15A4200A168A118312031351
:102700002008FF3E8316031399000800F800922B5F
:102710000130F5007508F8070130F3070318F40AD3
:102720000030F407740883120313FF007308840059
:102730000A168A1500200A168A11F5007808840006
:1027400083170008F60075087602F7007708031D66
:10275000AA2BAB2BB22B780884000008031DB12BE9
:10276000B22B882B7708F300F401F31BF403080065
:10277000F3018312031322080A168A11C2210A16D2
:102780008A11DA2BF301F30A2108FF0020088400E4
:102790000A168A1500200A168A110A168A11C22101
:1027A0000A168A11013083120313A0070318A10A25
:1027B0000030A107831203132108FF0020088400C2
:1027C0000A168A1500200A168A11003A031DE92B01
:1027D000EA2BC22B0800F70004307706031DF12B0B
:1027E000F22B1D2CF901FF30FA007730831203130E
:1027F000A0009030A1008030A2000A168A11B823F0
:102800000A168A11223083120313A0009030A1000F
:10281000C030A2000A168A11B8230A168A114D3058
:1028200083120313A5001930A4004F30A300A30B9B
:10283000172CA40B172CA50B172C0800F8004B2CF9
:1028400078088400831300080319272C282C342CC3
:10285000730884000008F6007808840000087606F3
:102860000319332C342C432C730884000008F60021
:10287000780884000008F70076087702F300F40176
:10288000031CF4035B2C0130F6007608F8070130D6
:10289000F6007608F3070130F4020030031CF5035C
:1028A000F502740A031D582C750A031D582C592C67
:1028B000202CF301F40108000A128A11F5270A16E8
:1028C0008A110A168A1547270A168A110A168A15C6
:1028D00041270A168A11003083120313AB0001301E
:1028E000AA008630A900A030A8000A128A15092083
:1028F0000A168A110A168A15EB270A168A110A1671
:102900008A117E210A168A11003083120313AB004C
:102910000030AA002530A9008030A8000A168A11CC
:1029200054230A168A11BB30F4009030F5000A16C1
:102930008A1125220A168A110B178B170800831299
:102940000313A501A601200821040319A82CA92C12
:10295000E02CA401A40AB72C01300310A00DA10D96
:10296000FF3E031DAD2C0130F7007708A407A11F1F
:10297000BA2CBB2CAC2C01300310A50DA60DFF3ECC
:10298000031DBC2C21082302031DC82C2008220291
:10299000031CCB2CCC2CD32C2008A2022108031C16
:1029A000A303A302251401300310A10CA00CFF3EC9
:1029B000031DD42C0130A402031DDF2CE02CBB2C02
:1029C0002608A1002508A0000800F7007708F800F5
:1029D0000C2D0130F5020030031CF603F6027408DA
:1029E00083120313A1007308A000F30A0319F40A69
:1029F000200884008317211C83130008A200780894
:102A000084000130F8072208831380000008031DAA
:102A10000A2D0B2D0C2D1D2D75087604031D112D6F
:102A2000122DE92C1D2D78088400831380010130BC
:102A300083120313A0002008F8070130F5020030CC
:102A4000031CF603F602750A031D2A2D760A031DE0
:102A50002A2D2B2D132D080002300A168A119F22D1
:102A60000A168A1183160313AD0001300A168A1163
:102A70009F220A168A1183160313AE0000300A162D
:102A80008A119F220A168A1183160313AF002D089C
:102A9000F70004300310F70CFF3E031D4A2D7708A2
:102AA0000339303EC4002D080F39303EC5002E08D2
:102AB000F70004300310F70CFF3E031D5A2D770872
:102AC0000739303EC6002E080F39303EC7002F08A8
:102AD000F70004300310F70CFF3E031D6A2D770842
:102AE0000739303EC8002F080F39303EC900CA01EF
:102AF000080083120313BA009930A0009030A1009F
:102B00008030A2000A168A11B8230A168A110A1602
:102B10008A113A270A168A11831203133A08A00071
:102B20000130A100CA30A2000A168A11B8230A1681
:102B30008A11CE3083120313B6000A30F30000303E
:102B4000F4003708B800B9013808F5003908F60074
:102B50000A128A118C270A168A117308303E0A1647
:102B60008A15B0270A168A11CF3083120313B600D4
:102B70000A30F3000030F4003708B800B901380813
:102B8000F5003908F6000A168A1127260A168A1156
:102B90007308303E0A168A15B0270A168A110800F3
:102BA000C330F800CD30F700F70BD42DF80BD42D3F
:102BB000F30133300A168A11C2210A168A111B301A
:102BC000F8009E30F700F70BE32DF80BE32D000023
:102BD000F30133300A168A11C2210A168A11A6306F
:102BE000F700F70BF12D0000F30133300A168A11BC
:102BF000C2210A168A11FC2DFD2D0000F301383088
:102C00000A168A11C2210A168A11A630F700F70B9C
:102C1000072E0000F30101300A168A11C2210A169C
:102C20008A110430F8003D30F700F70B152EF80B31
:102C3000152E1A2EF3010C300A168A11C2210A161B
:102C40008A11A630F700F70B232E0000080083122C
:102C50000313A101F61F2D2E2E2E352EF509F60990
:102C6000F50A0319F60AA101A10AF41F382E392E1C
:102C70003E2EF309F409F30A0319F40A73087404E5
:102C80000319432E442E732EA001A00A522E0130A8
:102C90000310F30DF40DFF3E031D482E0130F70025
:102CA0007708A007F41F552E562E472E740876027B
:102CB000031D5C2E73087502031C5F2E602E662EAA
:102CC0007308F5027408031CF603F60201300310C2
:102CD000F40CF30CFF3E031D672E0130A002031D10
:102CE000722E732E562E21080319772E782E7D2EE4
:102CF000F509F609F50A0319F60A7608F4007508CD
:102D0000F300080083120313A7000A168A112C256A
:102D10000A168A11C430F3000030F4000630F500C2
:102D20000030F600B2300A168A11E5240A168A111C
:102D3000831203132708F3000130F4000230F5007A
:102D40000030F600B8300A168A11E5240A168A11F6
:102D50000A30F3000030F400831203132408A500A6
:102D6000A6012508F5002608F6000A128A118C270C
:102D70000A168A117308303E83160313BA000A300C
:102D8000F3000030F400831203132408A500A60109
:102D90002508F5002608F6000A168A1127260A16C5
:102DA0008A117308303E83160313BB00BC010A1658
:102DB0008A1124230A168A11080083120313A00023
:102DC0000A30F30020080A168A15D6270A168A1137
:102DD000FB3E83120313A100A2012208A03E84003F
:102DE000220821070A168A11CA220A168A11831399
:102DF00080000130F700770883120313A207063022
:102E00002202031C042F052FED2E2208A03E840071
:102E100080012108063E0A168A11CA220A168A1162
:102E200083160313A700831203132108073E0A1613
:102E30008A11CA220A168A1183160313A800A9014F
:102E4000831203132108083E0A168A11CA220A16A1
:102E50008A1183160313AA00831203132108093E63
:102E60000A168A11CA220A168A1183160313AB00A6
:102E7000AC0108000A168A112C250A168A11C030E6
:102E800083120313B6008316031344080A168A1527
:102E9000B0270A168A11C13083120313B6008316B5
:102EA000031345080A168A15B0270A168A11C2307C
:102EB00083120313B6003A300A168A15B0270A1691
:102EC0008A11C33083120313B60083160313460816
:102ED0000A168A15B0270A168A11C4308312031302
:102EE000B6008316031347080A168A15B0270A1678
:102EF0008A11C53083120313B6003A300A168A15B8
:102F0000B0270A168A11C63083120313B60083163F
:102F1000031348080A168A15B0270A168A11C73003
:102F200083120313B6008316031349080A168A1581
:102F3000B0270A168A110800F801F80A790803195F
:102F4000A22FA32FD72FB62F78080A168A11DD26B5
:102F50000A168A1178080A128A150C210A168A1193
:102F6000013083120313A3002308F80778087902BD
:102F70000318BB2FBC2FA42F333083120313A000E0
:102F80009030A1008030A2000A168A11B8230A16D8
:102F90008A11113083120313A0009030A100C030B9
:102FA000A2000A168A11B8230A168A11F12F0030DE
:102FB00083120313A0009030A1008030A2000A16F3
:102FC0008A11B8230A168A11443083120313A00011
:102FD0009030A100C030A2000A168A11B8230A1648
:102FE0008A114D3083120313A5001930A4004F300D
:102FF000A300A30BF92FA40BF92FA50BF92F0800A1
:10300000FF1B0A2883137F1883170008840A0319FB
:10301000FF0A08007F087F398A000408840A031920
:04302000FF0A820021
:103E82008316031306083F388600080083160313BF
:103E92009F17831203131F14080064008001840A11
:103EA20004060319003404064F2F0A168A158027C8
:103EB2000A168A158316031311140800F3000A1652
:103EC2008A1580270A168A15730883120313930032
:103ED20008000A128A1500200A168A150A168A157F
:103EE20056270A168A150800F30073088312031373
:103EF20099000C1E7D2F7E2F7A2F0C12080083163C
:103F020003131419852F862F802F11081F39031DC3
:103F12008B2F8C2F802F0800F30101300A168A1193
:103F2200C2210A168A150430F8003D30F700F70B5B
:103F3200982FF80B982F9D2F0800831203131F153B
:103F42001F19A42FA52FA12F1E08F60083160313F5
:103F52001E08F5007608F4007508F3000800F80062
:103F6200F3018312031336080A168A11C2210A16B4
:103F72008A15F301F30A78080A168A11C2210A1671
:103F82008A1508007E088A007F0882000A168A15B0
:103F9200C3270A168A158000840A04087D060319BD
:103FA2000034FF0A0319FE0AC72FF600F501761C3A
:103FB200DB2FDC2FE02F7308F4007408F5070310E1
:103FC200F30D0310F60C7608031DE82FE92FD82F06
:103FD2007508080000300A168A119F220A168A15EF
:103FE20083120313A50025087F39A5002508F800D0
:0E3FF20000300A168A1103220A168A150800EA
:02400E00FB3F76
:00000001FF
